:020000040800F2
:10000000680600206501000831060008D1030008D9
:1000100000000000000000000000000000000000E0
:10002000000000000000000000000000350600088D
:10003000000000000000000033060008370600083A
:100040007701000800000000770100087701000830
:10005000770100087701000877010008A503000870
:100060000000000077010008770100087701000810
:100070007701000877010008770100080000000000
:100080007701000800000000000000007701000870
:1000900000000000770100087701000877010008E0
:1000A0007701000877010008770100087701000850
:1000B00077010008000000000000000000000000C0
:1000C00000F002F800F03EF80CA030C80838241800
:1000D0002D18A246671EAB4654465D46AC4201D180
:1000E00000F030F87E460F3E0FCCB6460126334274
:1000F00000D0FB1AA246AB463343184790060000D7
:10010000B0060000103A02D378C878C1FAD8520776
:1001100001D330C830C101D504680C6070470000BD
:100120000023002400250026103A01D378C1FBD813
:10013000520700D330C100D50B6070471FB51FBDFB
:1001400010B510BD00F0FAF81146FFF7F7FF00F008
:10015000EFFA00F012F903B4FFF7F2FF03BC00F06E
:1001600019F900000748804707480047FEE7FEE707
:10017000FEE7FEE7FEE7FEE704480549054A064BB1
:1001800070470000DD060008C1000008680000207C
:1001900068060020680200206802002001E004C018
:1001A000091F0429FBD28B0701D50280801CC907D7
:1001B00000D00270704700290BD0C30702D0027034
:1001C000401C491E022904D3830702D50280801CEB
:1001D000891EE3E70022EEE70022DFE700220309A1
:1001E0008B422CD3030A8B4211D300239C464EE052
:1001F00003460B433CD4002243088B4231D303090E
:100200008B421CD3030A8B4201D394463FE0C309BF
:100210008B4201D3CB01C01A524183098B4201D3D7
:100220008B01C01A524143098B4201D34B01C01AC2
:10023000524103098B4201D30B01C01A5241C3083A
:100240008B4201D3CB00C01A524183088B4201D3A9
:100250008B00C01A524143088B4201D34B00C01A95
:100260005241411A00D201465241104670475DE0AA
:10027000CA0F00D04942031000D34042534000222D
:100280009C4603098B422DD3030A8B4212D3FC22D6
:10029000890112BA030A8B420CD3890192118B4255
:1002A00008D3890192118B4204D389013AD092116B
:1002B00000E08909C3098B4201D3CB01C01A524126
:1002C00083098B4201D38B01C01A524143098B42EF
:1002D00001D34B01C01A524103098B4201D30B01D8
:1002E000C01A5241C3088B4201D3CB00C01A5241FD
:1002F00083088B4201D38B00C01A5241D9D24308E4
:100300008B4201D34B00C01A5241411A00D2014620
:10031000634652415B10104601D34042002B00D58A
:100320004942704763465B1000D3404201B500204C
:10033000C046C04602BD704770477047754600F022
:1003400025F8AE46050069465346C008C0008546FC
:1003500018B020B5FFF710FF60BC00274908B6466B
:100360000026C0C5C0C5C0C5C0C5C0C5C0C5C0C5C4
:10037000C0C5403D49008D46704710B50446C04693
:10038000C0462046FFF7E7FE10BD0000004870475A
:100390000400002001491820ABBEFEE72600020041
:1003A000704700000849FF200B69013002469A435C
:1003B00009D10861054AC00151690B4603401B047D
:1003C00088430343936170470018024000040050C3
:1003D000FEE7000010B50479002326490268002CCE
:1003E00041D0002A3DD04479002C12D0012C18D0E5
:1003F000022C19D001238279002A32D01D4980397C
:10040000012A19D0022A20D0032A22D00220034335
:1004100027E04C6894434C6002680C6814430C60FD
:10042000E9E70C68944301E00C6814430C6002682F
:100430004C6814434C60DEE702684C6894434C609F
:1004400000680A6802430A600BE002680C68944383
:1004500002E002680C6814430C6000684A680243BA
:100460004A60184610BD0C6894430C6000684A68E6
:100470008243F5E780180240F0B500244CE00123E8
:10048000A3401A4047D04B68012B01D0022B0FD15B
:100490008E688568134653435F00DF19BD4373437D
:1004A0001D438560CB684568534395431D434560B4
:1004B0000F69C668134653435D005D19AE435F4341
:1004C0003E43C6604E68022E1FD1FF2A0ED8174643
:1004D0004A69066A94461A467A437A431701BF1A54
:1004E000BE4367467A43164306620EE0160A32465A
:1004F00072434F6972437243BC461601B71A466A8B
:10050000BE4367467A43164346624A6806685343C9
:10051000AE431E430660641C0A681346E340AED136
:100520000020F0BD08B504494A6B02434A63496B99
:100530000140009108BD00000010024010B57D216F
:10054000C900FFF74BFE0449401E48610020886146
:100550000520086110BD000000E000E001490860CE
:10056000704700000000002008B506490A690092A3
:10057000421C00D0401C0A69D20300D5401E00284E
:10058000F9D108BD00E000E0F0B589B00024069480
:10059000182168460794FFF71FFE2020FFF7C2FFCF
:1005A0000220FFF7BFFF0120FFF7BCFF01211D481C
:1005B000C90381628F1105252D07AF6101260091C6
:1005C00002940394019604946946FFF755FF029440
:1005D000039469462846009701960494FFF74CFF60
:1005E00011480221026ED208D200026680150690E0
:1005F000684606774477817706A8FFF7EBFEE9683F
:1006000032040320000481431143E96029688143D7
:1006100029600021072000F069F804498020086063
:1006200009B0F0BD000400500818024000E100E0ED
:10063000FEE770477047704710B5234802210268F3
:10064000D208D2000A43026001684907490F022913
:10065000FAD11E48016801221204114301600168A9
:100660008903C90FFBD01A49C2681A4B1A401143BB
:10067000C16001680122120611430160C1681201C4
:100680001143C16001688901C90FFBD081680F2245
:1006900012029143816082680221D208D2000A438B
:1006A00082603822816811401029FBD181680722BD
:1006B000120391438160084C2046FFF73FFF20461C
:1006C000FFF74CFF10BD0000002002400010024068
:1006D000031000208C80FF1F0090D00301200249EE
:1006E000C00688607047000000ED00E08307FF222D
:1006F000DB0E9A408907090E9940002808DB830821
:1007000009489B001B1818689043084318607047FD
:100710000007000F0838830804489B001B18D8699D
:1007200090430843D861704700E400E000ED00E02A
:1007300008B51548012102680A43026000680840B4
:100740000090114809074038C26B0A43C263C06B6E
:10075000084003210090081FFFF7C8FFFFF76CFF58
:10076000FFF712FF0124052564022D077D26F60000
:10077000696922460846204000048A431043A86164
:100780003046FFF7F1FEF3E740100240AC070008E7
:10079000000000200400000004010008B007000869
:1007A0000400002064060000200100080024F4007A
:04000005080000C12E
:00000001FF
